:020000040000FA
:06000000F7EF01F0120011
:020006000000F8
:08000800D9CFE6FFE1CFD9FFDB
:10001000070EE12694909492949494969498949ACE
:10002000949C949E939C939E92809292DDD8D6D875
:10003000B4D8F3CFDEFFF4CFDDFFE80E106E030E71
:10004000116E10C00BF011C00CF0DECF06F0DDCF4A
:1000500007F0D1EC01F0020E06C0DBFFDB50300FE1
:10006000E76E030EE7CFDBFFDBCFE6FFFBD8E55201
:10007000DECF10F0DDCF11F0E80E0B6E030E0C6E2C
:1000800010C006F011C007F0D1EC01F002C010F072
:1000900003C011F0640E0B6E0C6A10C006F011C0A4
:1000A00007F0D1EC01F006C010F007C011F0020E0D
:1000B00010C0DBFFDB50300FE76E040EE7CFDBFF35
:1000C000DBCFE6FFCFD8E552DECF10F0DDCF11F069
:1000D000E80E0B6E030E0C6E10C006F011C007F098
:1000E000D1EC01F002C010F003C011F0640E0B6EF1
:1000F0000C6A10C006F011C007F0D1EC01F002C08C
:1001000010F003C011F00A0E0B6E0C6A10C006F05E
:1001100011C007F0D1EC01F006C010F007C011F0DB
:10012000020E10C0DBFFDB50300FE76E050EE7CF8D
:10013000DBFFDBCFE6FF96D8E552DECF10F0DDCF58
:1001400011F00A0E0B6E0C6A10C006F011C007F019
:10015000D1EC01F002C010F003C011F0020E10C08B
:10016000DBFFDB50300FE76E060EE7CFDBFFDBCFA8
:10017000E6FF78D8E552880EE66E130EE66E87D855
:10018000E552E55255D7070EE15C02E2E16AE5521D
:10019000E16EE552E7CFD9FF1200D9CFE6FFE1CFFC
:1001A000D9FF020EE126DE6ADD6AC282C2B2FED744
:1001B000C450DE6EDD6ADECF10F0DDCF11F010C06E
:1001C000F3FF11C0F4FF020EE15C03E200D0E16A2C
:1001D000E552E16EE552E7CFD9FF1200C26A0E0E7A
:1001E000C16EC06EC2801200380EE66E26D8E5528F
:1001F000190EE66EE66A4BD8E552E552010EE66E40
:100200001CD8E552190EE66EE66A41D8E552E55271
:100210000C0EE66E12D8E552190EE66EE66A37D875
:10022000E552E552800EE66E08D8E552190EE66EEC
:10023000E66A2DD8E552E5521200D9CFE6FFE1CFAC
:10024000D9FFFE0EDB50826E819081928184190E5F
:10025000E66EE66A1CD8E552E5528194E552E7CF96
:10026000D9FF1200D9CFE6FFE1CFD9FFFE0EDB5058
:10027000826E818081928184190EE66EE66A07D8CB
:10028000E552E5528194E552E7CFD9FF1200D9CF6C
:10029000E6FFE1CFD9FF040EE126DE6ADD6ADECF9C
:1002A00010F0DDCF11F0FD0EDBCF12F0FE0EDBCF34
:1002B00013F01250105C135011581AE2020EDB6A50
:1002C000030EDB6A020EDBCF10F0030EDBCF11F062
:1002D000130E105C010E115806E2020EDB2A030E0B
:1002E00001E3DB2AEFD7DF2A010E01E3DB2AD7D7B0
:1002F000040EE15C02E2E16AE552E16EE552E7CF0D
:04030000D9FF12000F
:0C030400060EF66E000EF76E000EF86E8E
:1003100000010900F550856F0900F550866F03E173
:10032000856701D03DD00900F550806F0900F55078
:10033000816F0900F550826F09000900F550E96EE0
:100340000900F550EA6E090009000900F550836FB5
:100350000900F550846F09000900F6CF87F0F7CF48
:1003600088F0F8CF89F080C0F6FF81C0F7FF82C027
:10037000F8FF0001835302E1845307E00900F550C0
:10038000EE6E8307F8E28407F9D787C0F6FF88C0CE
:10039000F7FF89C0F8FF00018507000E865BBFD715
:0203A000120049
:0E03A200036A026A100EE76ED8900636073620
:1003B000023603360B50025C0C50035805E30B5019
:0E03C000025E0C50035A062AE72EF0D71200F8
:0203CE00000E1F
:1003D000F36E00EE00F0060E01D81200EA6002D0C3
:0E03E000EE6AFCD7F350E9601200EE6AFCD71B
:0203EE0015EE0A
:1003F00000F025EE00F0F86A0F9C82EC01F005ECAD
:0A04000002F004EC00F0FBD712003C
:02040A001200DE
:020000040030CA
:0100010002FC
:010003001EDE
:010005008179
:010006008178
:00000001FF
